:020000021000EC
:100000000000042045AC01007DAC0100396A01000C
:1000100081AC0100456A01004B6A0100000000004C
:10002000000000000000000000000000D982010074
:1000300089AC010000000000718301008183010090
:10004000E5E801001D5E01008FAC01008FAC0100EE
:100050008FAC01008FAC01008FAC01008FAC0100B0
:100060008FAC01008FAC01008FAC01008FAC0100A0
:100070008FAC010079EA01008FAC0100355E010010
:100080008FAC01008FAC01008FAC01008FAC010080
:100090008FAC01008FAC01008FAC01008FAC010070
:1000A0008FAC01008FAC01008FAC01008FAC010060
:1000B0008FAC0100411201000000000000000000B0
:1000C0008FAC01008FAC01008FAC01008FAC010040
:1000D0008FAC01008FAC01008FAC01008FAC010030
:1000E0008FAC01008FAC01008FAC0100000000005C
:1000F000000000008FAC0100000000008FAC010088
:1001000010B5054C237833B9044B13B10448AFF351
:1001100000800123237010BD30100020000000007B
:10012000BC70020008B5034B1BB103490348AFF391
:10013000008008BD0000000034100020BC700200E8
:10014000154B002B08BF134B9D46A3F5803A0021A9
:100150008B460F461348144A121A11F0E1FC0F4B5C
:10016000002B00D098470E4B002B00D09847002062
:10017000002104000D000D48002802D00C4807F0B3
:1001800047FA10F0DBFF2000290007F0FDFE07F022
:100190003CFA00BF0000080000000420000000003E
:1001A000E57E01003010002078C8002011760100A3
:1001B000000000007047D0E900301847D0E9003057
:1001C000184708B50446204600F024FAFBE70B6800
:1001D00003604B6843608B688360704708B50446D2
:1001E000204600F00FF9FBE7C3680BB19B68184786
:1001F0007047000073B506F0EFFE06F0EDFE2F4BE2
:10020000D3F84011D3F8442191421C462BD193F8E6
:10021000483143BB06F0F6FE06F0F4FE06F0DCFEC5
:1002200006F0DAFE264B274CD3F84011D3F84421D0
:1002300091421D4602D193F8483153B306F0E2FED5
:10024000D5F844315E1C05EB03130FCB142E84E864
:100250000F00C5F844614FF0000301D1C5F84431E7
:1002600085F8483117E006F0CDFED4F84431164D3C
:100270005E1C04EB03130FCB142E85E80F004FF028
:100280000003C4F8446184F8483108BFC4F844311D
:10029000C2E706F0B7FE06F0B5FEA0680FF030FC2E
:1002A0000223009302460B46084802F0D7FC4FF4A5
:1002B0007A7002B0BDE8704002F012BD5416002002
:1002C000801000204C1000205C100020F02E002038
:1002D00030B54FF4E13185B01A481B4C02F01CFADE
:1002E0001A4B1B490022C1E900231A492046C1E9E3
:1002F000002300F04BF9184B0393184B6946CDE9E6
:100300000034002504F5A870154C02950AF0CCF8CD
:100310006846FFF769FF204600F030F8114B039361
:10032000114B0295694604F5A870CDE900340AF036
:10033000BBF86846FFF758FF4FF4FA7002F0D0FCA4
:1003400005B030BDB82D002054160020000033C089
:10035000701000207810002010510200C30101002D
:10036000801000201C510200DD01010010B5044680
:1003700000F5A8700AF01EF9204610BD1FB506480A
:1003800000F061FC28B94FF0FF32012101A807F00D
:1003900083FF05B05DF804FB7C20002037B5154CC9
:1003A000002508232946C4F84C3104F5C870124BC7
:1003B000C4F85031C4F84051C4F8445184F848514D
:1003C000C4F8605107F05EFD04F5D27007F0F8FC48
:1003D00004F5A87000952B464FF4806218210AF0AE
:1003E00057F8064A0649204603B0BDE8304007F0FA
:1003F0000AB900BF80100020786A020000020020C5
:100400006D030100F0B5044685B0204800F0ACFA59
:10041000A8B36E4602AB01AA31461C4800F0FAFAB6
:1004200002F04CFC039006F0D7FD06F0D5FD94F8E1
:10043000485106F0E7FD3DB1D4F844310133142BA7
:1004400008BF0023C4F8443196E80F00D4F84051A7
:100450006F1C142F04EB0515C4F8407185E80F00DC
:1004600004BF0023C4F84031D4F84021D4F844310B
:100470009A4204BF012384F8483106F0C3FDD4F842
:100480004C0109F0ABFF05B0F0BD00BF7C2000209F
:1004900010B5044600F5D0700AF08CF8204610BD67
:1004A00037B5154C002514232946C4F89C3104F5B2
:1004B000F070124BC4F8A031C4F89051C4F89451B4
:1004C00084F89851C4F8B05107F0DCFC04F5FA70D8
:1004D00007F076FC04F5D07000952B464FF480624F
:1004E000182109F0D5FF064A0649204603B0BDE8A9
:1004F000304007F088B800BF8C120020786A0200F4
:10050000000200209104010010B50446B0300AF04A
:1005100051F8204610BD000037B5144C00250A23C1
:100520002946C4F8AC3004F1F000114BC4F8B030E7
:10053000C4E9285584F8A850C4F8C05007F0A2FCBC
:1005400004F5827007F03CFC04F1B00000952B46E6
:100550004FF48062182109F09BFF064A06492046A5
:1005600003B0BDE8304007F04EB800BFE8140020EB
:10057000786A0200000200200905010010B5044657
:1005800000F5A8700AF016F8204610BD1FB5064801
:1005900000F059FB28B94FF0FF32012101A807F004
:1005A0007BFE05B05DF804FB7C20002037B5154CC0
:1005B000002508232946C4F84C3104F5C870124BB5
:1005C000C4F85031C4F84051C4F8445184F848513B
:1005D000C4F8605107F056FC04F5D27007F0F0FB48
:1005E00004F5A87000952B464FF48062182109F09D
:1005F0004FFF064A0649204603B0BDE8304007F0E9
:1006000002B800BF54160020786A020000020020E1
:100610007D050100F0B5044685B0204800F0B7F92B
:10062000A8B36E4602AB01AA31461C4800F03AFA64
:1006300002F044FB039006F0CFFC06F0CDFC94F8EA
:10064000485106F0DFFC3DB1D4F844310133142B9E
:1006500008BF0023C4F8443196E80F00D4F8405195
:100660006F1C142F04EB0515C4F8407185E80F00CA
:1006700004BF0023C4F84031D4F84021D4F84431F9
:100680009A4204BF012384F8483106F0BBFCD4F839
:100690004C0109F0A3FE05B0F0BD00BF7C20002096
:1006A00010B5044600F5A87009F084FF204610BD7F
:1006B00037B5154C002528232946C4F84C3104F5DC
:1006C000C870124BC4F85031C4F84051C4F84451BA
:1006D00084F84851C4F8605107F0D4FB04F5D27097
:1006E00007F06EFB04F5A87000952B464FF480626E
:1006F000182109F0CDFE064A0649204603B0BDE8A0
:10070000304006F080BF00BF60180020786A020009
:1007100000020020A106010010B50446AC3009F02B
:1007200049FF204610BD000073B5184C184E00213B
:10073000204607F0A7FB324616492046164C06F025
:1007400062FF0025154BC4F8AC302946C4E9285592
:1007500084F8A850C4F8BC5004F1EC0007F092FBF8
:1007600004F5807007F02CFB04F1AC0000952B46DB
:100770004FF48062182109F08BFE09493246204669
:1007800002B0BDE8704006F03EBF00BFD41B0020A1
:1007900000020020D77E01006C1A0020786A020057
:1007A0001907010010B50446B03009F003FF2046D8
:1007B00010BD000037B5144C002528232946C4F885
:1007C000AC3004F1F000114BC4F8B030C4E9285546
:1007D00084F8A850C4F8C05007F054FB04F58270A8
:1007E00007F0EEFA04F1B00000952B464FF480625A
:1007F000182109F04DFE064A0649204603B0BDE81F
:10080000304006F000BF00BFE81B0020786A0200FD
:1008100000020020A507010010B50446B03009F021
:10082000C9FE204610BD000037B5144C0025282312
:100830002946C4F8AC3004F1F000114BC4F8B030D4
:10084000C4E9285584F8A850C4F8C05007F01AFB32
:1008500004F5827007F0B4FA04F1B00000952B465D
:100860004FF48062182109F013FE064A064920461B
:1008700003B0BDE8304006F0C6BE00BF541D0020E6
:10088000786A0200000200201908010010B5044631
:1008900000F5807009F08EFE204610BD37B5144C6F
:1008A00000254FF4FA632946C4F8FC3004F5A07023
:1008B000104BC4F80031C4E93C5584F8F850C4F832
:1008C000105107F0DFFA04F5AA7007F079FA04F581
:1008D000807000952B464FF48062182109F0D8FDF6
:1008E000054A0649204603B0BDE8304006F08BBEFD
:1008F000C01E0020786A0200000200208D0801005E
:1009000070470000004870470000EE420048704702
:100910000000A04110B50C21044607F0A9F82046BC
:1009200010BD70B5044680680368DB6A16460D4644
:100930009847A068036831461B689847A068036819
:100940005B6B984768B9A06803680122DB6B294696
:100950009847012805D1A0680368BDE870405B692D
:1009600018474FF0FF3070BD08B5037943B12F220F
:100970006B21FFF7D6FF10F03F0018BF012008BD24
:1009800017226B21FFF7CDFF00F00100F7E708B554
:1009900017226B21FFF7C5FFC0F3400008BD08B563
:1009A00027221E21FFF7BDFFC0F3C00008BD2DE9BF
:1009B000F04105468068069F1E460368DB6A1446C0
:1009C00088469847A868036844F080011B689847E8
:1009D000A868036800211B6B9847044688B9A8687B
:1009E00003683A46DB6B41469847B8420DD134184C
:1009F000A6420CD0A86803685B69984706F8010B0B
:100A0000F6E74FF0FF30BDE8F0812046FBE701201C
:100A1000F9E700007FB51C4606230E4615460093F5
:100A2000282202AB6B21FFF7C2FF28B91B4B3360B2
:100A30002B60236004B070BDBDF908000FF04EF8C4
:100A40000022174B0FF0B4F800224FF07C530FF048
:100A5000AFF80FF07DFB3060BDF90A000FF03EF8F3
:100A600000220F4B0FF0A4F800224FF07C530FF040
:100A70009FF80FF06DFB2860BDF90C000FF02EF809
:100A80000022074B0FF094F800224FF07C530FF038
:100A90008FF80FF05DFB20600120CBE70000C07FE6
:100AA000000010407FB51C4606230E4615460093F5
:100AB000182202AB6B21FFF77AFF28B91B4B33607A
:100AC0002B60236004B070BDBDF908000FF006F87C
:100AD0000022174B0FF06CF800224FF07C530FF000
:100AE00067F80FF035FB3060BDF90A000EF0F6FF35
:100AF00000220F4B0FF05CF800224FF07C530FF0F8
:100B000057F80FF025FB2860BDF90C000EF0E6FF4A
:100B10000022074B0FF04CF800224FF07C530FF0EF
:100B200047F80FF015FB20600120CBE70000C07FE5
:100B300000409F407FB51C4606230E461546009395
:100B4000282202AB1E21FFF732FF28B9214B336068
:100B50002B60236004B070BDBDF908000EF0BEFF2D
:100B600000221D4B0FF024F800221C4B0FF020F840
:100B700000224FF07C530FF01BF80FF0E9FA3060C1
:100B8000BDF90A000EF0AAFF0022134B0FF010F877
:100B90000022124B0FF00CF800224FF07C530FF0A4
:100BA00007F80FF0D5FA2860BDF90C000EF096FF9B
:100BB0000022094B0EF0FCFF0022084B0EF0F8FF5C
:100BC00000224FF07C530EF0F3FF0FF0C1FA2060CB
:100BD0000120BFE70000C07F000010400000594026
:100BE00070B5044680681D460368DB6A1646984760
:100BF000A068036831461B689847A06803682946C7
:100C00001A689047A06803685B6B9847B0FA80F059
:100C1000400970BD10B50323044622221E21FFF7B0
:100C2000DFFF002310226B212046FFF7D9FF0023AE
:100C3000204620226B21FFF7D3FFA0680368BDE8A0
:100C400010405B6A184710B5044680680368DB698A
:100C50009847052322226B212046FFF7C1FF0C2372
:100C600021221E212046FFF7BBFF0A2002F038F8A0
:100C70000F226B212046FFF754FE682804D020463F
:100C8000FFF7C8FF002010BD0F221E212046FFF7EE
:100C900048FE3D28F3D1782310226B212046FFF730
:100CA0009FFF702320226B212046FFF799FFB4237A
:100CB00020221E212046FFF793FF002321221E2120
:100CC0002046FFF78DFF002322221E212046FFF73A
:100CD00087FF0120D7E700000548064B036000238B
:100CE0000371054A054B0649836006F08CBC00BFC2
:100CF0007C200020305102000002002080230020D0
:100D00000109010000207047490000230162C0F87A
:100D100030327047036801211B6B184710B4036819
:100D20009C6B0123A4465DF8044B6047D0F8303239
:100D3000B3F5807F1FBF5A1CC0F83022C01880F85E
:100D4000301114BF012000207047D0F82C017047EB
:100D50007047C0F834127047C0F838127047D0F8A6
:100D60002C312BB1D0F82831184490F8240070476A
:100D70004FF0FF3070470346D0F82C01A8B1D3F8EC
:100D80002C2182B1D3F828211A4492F82400D3F8F8
:100D900028210132D2B2C3F82821D3F82C21013AFC
:100DA000C3F82C2170474FF0FF30704710B5044B4B
:100DB0000360044600F50F7009F0FCFB204610BDEF
:100DC0007051020038B50446802006F02BFE94F9DD
:100DD0001C2094F91810054602F042FD656138BDEB
:100DE0007FB5044648200E4606F01CFE94F91C20F0
:100DF00094F91810054602F06DFD71002846256132
:100E000002F084FD094B0393094B019369460023CB
:100E100004F50F700293009409F046FB039B13B195
:100E20009B686846984704B070BD00BF5C510200E3
:100E30003F0F010038B5D0F8303214461A44B2F5ED
:100E4000807F88BFC3F58074054600F59870224600
:100E5000184410F067FDD5F830322344C5F830321D
:100E6000204638BD10B50446406910B10368DB6800
:100E70009847206920B14821BDE8104006F0F8BD30
:100E800010BD38B5044640690D4608B102F0F2FBCA
:100E9000206920B12946BDE8384002F035BD38BD93
:100EA00007B581F001010091D0F83032016A00F5F8
:100EB0009872406902F00CFC002814BF0220002048
:100EC00003B05DF804FB70B5C2B083F0010300937A
:100ED00002AE04461546134649003246406902F008
:100EE00018FCC8B9A84218D0D4F82C31B3F5807FCB
:100EF00010D0D4F82431325C234483F82420D4F871
:100F000024310133DBB2C4F82431D4F82C3101335D
:100F1000C4F82C310130E5E70025284642B070BD09
:100F200010B4D0E9013401686210E40701EB02005B
:100F300048BF8A585DF8044B48BFD358184730B5AE
:100F4000044685B00025206902F0E7FC012829D07D
:100F5000F9DB0328F7DCC4F82451C4F82851C4F89D
:100F60002C5110226946206902F0D9FC00228242ED
:100F70002ADAD4F82C31B3F5807F11D0D4F824319B
:100F80001DF80210234483F82410D4F824310133CF
:100F9000DBB2C4F82431D4F82C310133C4F82C313D
:100FA0000132E4E7D4F8383203B19847D4F830225C
:100FB00032B104F59871206902F0B3FCC4F83052E4
:100FC000206902F0B6FCBEE71028CAD8D4F82C314C
:100FD000002BF5DDD4F83432002BF1D0D4F82C01FD
:100FE0009847EDE773B54FF47A730025C0E90153D4
:100FF000184B03600446C0E906124FF4807229467C
:10100000243010F08DFD144BC4F82451C4F83C3248
:101010002946C4F82851C4F83052C4F82C51C4F8F9
:101020003452C4F83852C4F84C5204F51F7006F01C
:1010300029FF04F50F7604F5247006F0C1FE304652
:1010400000952B464FF48052182109F021FA2046D2
:1010500002B070BD70510200786A020010B500F055
:10106000D2F912288ABF1B4B4FF0FF3493F920416D
:1010700000F0C9F9132888BF164B17488CBF93F9A5
:1010800030214FF0FF322146FFF7ACFF134A1449DD
:10109000114806F0B8FA00F0B6F91E288ABF0D4BC9
:1010A0004FF0FF3493F9E04100F0ADF91F2888BFFD
:1010B000084B0C4888BF93F9F021214698BF4FF0A8
:1010C000FF32FFF78FFF054A05490648BDE810408B
:1010D00006F099BA040200208820002000020020B7
:1010E000AD0D010080230020704710B52821044673
:1010F00006F0BEFC204610BD10B5094C82600022EF
:10110000C0E90041027342738273C273C0E90422D2
:10111000C0E9062214214FF0FF32C0E9081210BDC9
:10112000C451020008B5064B06491A221846FFF7BB
:10113000E3FF054A05491846BDE8084006F063BAD2
:10114000782600208023002000020020E910010002
:1011500000F1804000F5E830002382B003600368AE
:101160000193019B02B0704738B5074C4FF0005512
:10117000C4F88050BFF34F8FBFF36F8F143000F06F
:1011800004F9256038BD00BF00E100E038B5074C28
:101190004FF00055C4F88050BFF34F8FBFF36F8FEF
:1011A000143000F0C9F8256038BD00BF00E100E050
:1011B0001F4B1B6870B5054653B34FF4807005F1A3
:1011C0001404FFF7C5FF204600F0DFF8D8B9204629
:1011D00000F0D6F80646204600F0A2F82B69154A22
:1011E0005B00C2F86065B0FBF3F32046C2F86435DB
:1011F00000F096F80146204600F0D1F8AB6B33B111
:10120000BDE8704018470B4B0022C3F8002570BDA5
:10121000094B1B682BB14FF48270BDE87040FFF79B
:1012200097BF064B1B68002BF1D04FF48470F4E796
:1012300000D1014000D0014004D1014008D101405B
:1012400001210148FFF7B4BFA026002010B50B4CC8
:101250000B4B23601D221C23C4E9012304F114005D
:101260001B23E36000F04EF80023A3632046054AE9
:101270000549BDE8104006F0C6B900BFA026002011
:10128000D4510200000200208D12010010B5044B61
:10129000044640F8143B00F00FF8204610BD00BF94
:1012A000D451020010B50446FFF7F0FF20463C2160
:1012B00006F0DEFB204610BD704710B52421044621
:1012C00006F0D6FB204610BD10B5C1680446406844
:1012D00010F086FC6060D4E9020110F081FCE26845
:1012E000A0600021606810F01BFCE268A06800218B
:1012F00010F016FC0023236223616361A361E361A4
:1013000010BD000010B5054B03604FF40073044698
:10131000C360FFF7D9FF204610BD00BFEC510200AB
:10132000036A043350F82330026A063250F8222050
:10133000C0689B1AC01A704738B504460846236A2D
:10134000043354F82350236A063354F82330ED1A3B
:10135000954228BF15468DB1236A226A04EB8303A8
:1013600006325B6854F822102A46194410F0DAFA63
:10137000236A04EB8304A3692B44A361284638BD88
:10138000036A00EB830040687047036A043350F837
:101390002320036A063350F82300101A7047036AAB
:1013A0005BB901230362036A0433002240F823106F
:1013B000036A063340F8232070470023F2E7000059
:1013C000014B024A1A607047DC260020802300206F
:1013D000014B024A1A607047E0260020802300205B
:1013E00030B5A1F11004002500F00F02D3B2092A94
:1013F000CCBF373330338B73CD7302398C424FEA15
:101400001010F1D130BD22207047000030B501210D
:1014100085B0192001F0A8FC0121192001F0E0FCA1
:10142000204A0023D3604FF080420121C2F85C358E
:1014300003F1804303F588334FF48032C3F8482327
:101440002120C3F8082301F08FFC0121202001F0A6
:101450008BFC0121212001F0C3FC0121202001F09F
:10146000BFFC114B01221A60104A1368002BFCD0FC
:101470000F4B0024C3F80045C3F800450D4B0FCBBC
:101480006D4685E80F00234620464FF0FF3155F8A2
:1014900023200133042BC2F80005C2F86015F6D1F1
:1014A00005B030BDF0ED00E00420004044210040D4
:1014B00000200040F451020038B54FF0805504463A
:1014C0002146D5F8A800FFF78BFFD5F8A40004F15A
:1014D0001001FFF785FF202038BD000072B64FF0E5
:1014E0008043B022C3F81C25BFF34F8F0549064B3C
:1014F000CA6802F4E0621343CB60BFF34F8F00BFB2
:10150000FDE700BF00ED00E00400FA0510B5044659
:10151000806920B10368DB6898470023A36110BD90
:10152000D0F828017047704701207047D0F8283163
:101530002BB1D0F82431184490F8200070474FF0B8
:10154000FF307047D0F828318BB1D0F824310344F4
:1015500093F82020D0F824310133DBB2C0F82431D5
:10156000D0F82831013BC0F82831104670474FF0C1
:10157000FF30704770B503681446DB69054698472D
:1015800004F47063B3F5407F04F0F0030CBF07214F
:10159000082104F00F02302B0CBF02230123012A83
:1015A00007D0901E42424241A869BDE8704002F057
:1015B00013BB0222F8E700007FB5044680690E469F
:1015C00048BB4FF4807006F02DFA3346054694F977
:1015D0001D2094F91C1002F099FDA56194F91E20BC
:1015E000531C05D094F91F30A069032102F09EFD21
:1015F000A06970B1094B03930022094B019369461E
:101600000094029202F021FB039B13B19B68684691
:10161000984704B070BD02F0CBFADFE70452020035
:101620008516010013B504468DF80710A06902F075
:10163000FBFA0028FAD0A069036801221B690DF1AA
:1016400007019847013018BF012002B010BD70B5E6
:1016500004460E461546A06902F0E6FA0028FAD0C4
:10166000A069D0F8FC3001211B6BFC309847A069C1
:1016700003682A461B6931469847431C14BF284615
:10168000002070BD13B50446A06902F0BCFAF0B1A9
:10169000A069036801225B690DF107019847D4F83E
:1016A0002831B3F5807FEFD0D4F820319DF80720A2
:1016B000234483F82020D4F820310133DBB2C4F86E
:1016C0002031D4F828310133C4F82831DCE702B0E6
:1016D00010BD10B4D0E9013401686210E40701EBD9
:1016E000020048BF8A585DF8044B48BFD3581847DA
:1016F00070B5FFF788FE60B3174B93F90060174C85
:10170000FFF781FE012888BF134B4FF000054FF40F
:101710007A7288BF93F910302677C4E90152104AD3
:10172000226098BF4FF0FF332022C4E9052563777C
:101730004FF48072FF23294604F12000A377E3775A
:1017400010F0EEF9C4F82051C4F82451C4F828511F
:1017500070BD4FF0FF36D2E704020020F4260020CF
:1017600018520200002070477047704710B5D0F83B
:101770008C452CB1236820465B689847A468F8E73D
:1017800010BD38B5D0F88C450D4634B123682046DD
:101790009B6829469847A468F7E738BD004870471A
:1017A000D852020010B5054B0360044603F0B9FFA0
:1017B000204603F0CFFF204610BD00BF5852020064
:1017C00010B50446FFF7EEFF20464FF4B26106F075
:1017D0004FF9204610BDF7B5D0F88C4505460E46AA
:1017E0000023A4B123683146DF680DF1030201AB89
:1017F0002046B8479DF803100429034605D0019AF6
:10180000284603F0EBF903B0F0BDA468E9E7019ABC
:101810009DF80310F4E770B505460E4622B100218D
:10182000BDE8704002F0D0BFD0F88C455CB12368B1
:1018300000221B6931462046984710B101212846F5
:10184000EEE7A468F2E72146F9E770B5D0F88C45D9
:101850000E46054600213CB12368314620465B69AF
:101860009847A4680146F6E72846BDE8704003F0B3
:10187000ABB8F8B5D0F88C4505460E4617463CB1D6
:10188000236820469B693A4631469847A468F6E7A4
:1018900028460121BDE8F84003F0F4B870B50021F6
:1018A00086B0044603F096FB0023ADF8063023898A
:1018B0008DF810301B0AA188E2888DF811304FF4A2
:1018C000897540F20123ADF80450ADF812300225BD
:1018D00040F20313EF268DF807508DF809508DF86C
:1018E0000C100125090A8DF80E20ADF81430120AEB
:1018F00004F10A038DF808608DF80A508DF80B008A
:101900008DF80D108DF80F2001AD05AE1C462A464E
:1019100003CAB24218605960154603F10803F6D1B4
:1019200012881A80204606B070BDF8B5002406461D
:101930000D462746304610F0E3FCA04207D9335D40
:1019400005F8143005EB440301345F70F2E7400002
:1019500000F0FE00F8BD38B5D0F88C55044635B11E
:101960002B6828461B6A984710B9AD68F7E72846E8
:1019700040F20233A4F8483504F24A51FFF7D5FF8C
:1019800094F84835184484F8480504F5A96038BD32
:1019900040F2023310B500F20A510446A0F80835AF
:1019A0000548FFF7C2FF94F80835184484F8080585
:1019B00004F5A16010BD00BF4452020040F20233A2
:1019C00010B50446A0F8C83400F2CA40FFF774FD11
:1019D00094F8C834184484F8C80404F5996010BD1C
:1019E0002DE9FF4100238DF80A3090F888351B4A15
:1019F0008DF80830012301928DF809303222C0237E
:101A00008DF80B308DF80C2001AB044600F54E78B4
:101A100003CBC4F83803C8F8041088F80820D4F8B9
:101A20008C6509258EB1336800211B6830469847C4
:101A3000478805F54E73093F00F109013A46E01861
:101A40000FF070FF3D44B668ECE784F83A53404627
:101A50002D1284F83B5304B0BDE8F0810902FFFF6A
:101A600073B504460D46164608F09CFF4FF480738C
:101A70000093014633462A46204603F073FA024B90
:101A80002360204602B070BD5852020010B5D0F855
:101A90008C350446A3B9C0F88C1594F888350B71C1
:101AA00094F888354A79134484F888350B680846D9
:101AB0005B6A9847238918442081012010BD134692
:101AC0009A68002AFBD19960E7E71FB5044603F046
:101AD00043FA0146684602F0E5FB4021684602F001
:101AE00051FCD4F88C4534B123682046DB69694643
:101AF0009847A468F7E7684602F0DBFB04B010BD26
:101B000010B50446FFF7E1FF2046BDE8104003F0A2
:101B100093B9000010B50D4C2378BFF35B8FDB0742
:101B200012D4204605F082FD70B148F25A0242F20A
:101B300041310748FFF794FF204605F099FD054A1B
:101B40000549034805F05FFD014810BD2428002029
:101B50002828002000020020A517010010B5FFF77B
:101B6000D9FF0368BDE810405B6F184710B5FFF759
:101B7000D1FF0368BDE810409B6F184710B5FFF711
:101B8000C9FF0368BDE81040DB6F184702F048BD8D
:101B900002F00ABD02F034BD704770477047436AD7
:101BA00093F870007047D0F81C017047012070470F
:101BB00000487047405402002DE9F04F044697B0AA
:101BC0000F464B22002103A80FF0AAFFD4F81C31C6
:101BD000267994F80EA094F80C90002B06F10105DC
:101BE000637B019314BF05200020EDB2002F40F06D
:101BF000978040F20923ADF80C304FF48173ADF8B3
:101C0000103080238DF8133032238DF814300823E0
:101C10008DF815300B2301218DF816308DF8250035
:101C200040F2022342F205404FF0240C4FF0090E1F
:101C300004274B22ADF818308DF8211002238DF8BF
:101C40002410ADF826004FF0100805208DF82A105A
:101C50008DF82D108DF82F104FF0030B06218DF805
:101C60000E208DF817608DF81A308DF81DE08DF874
:101C70001F608DF822308DF823308DF82B008DF801
:101C80002CC08DF831C08DF832308DF833108DF8BE
:101C900034008DF835C08DF81E708DF829808DF8D0
:101CA0002EB08DF830708DF8361007218DF8391070
:101CB0008DF8491044F20201ADF84C1040F2075182
:101CC000ADF850101D349DF804108DF837608DF874
:101CD00038508DF83A008DF842508DF84A008DF852
:101CE00052108DF8533044F20306402340F602258B
:101CF00003A920468DF83BA0ADF83C608DF83F80ED
:101D00008DF840E08DF84170ADF844508DF84B905F
:101D10008DF854300FF006FE204617B0BDE8F08F66
:101D20000020FAE738B505460A4B45F8C83B04469B
:101D3000FFF7F0FE03F0F5FC284602F0BDFB04F1CE
:101D4000740002F0B9FB04F1680002F0B5FB204614
:101D500038BD00BF0054020010B50446FFF7E2FF93
:101D600020464FF4907105F083FE204610BDFFF72A
:101D700005BF000010B5034B0360044602F01AFAD9
:101D8000204610BD2053020010B50446FFF7F2FFB5
:101D90002046282105F06CFE204610BD10B5034BEF
:101DA0000360044602F006FA204610BDF05202001D
:101DB00010B50446FFF7F2FF2046342105F058FE27
:101DC000204610BD10B5034B0360044602F0F2F943
:101DD000204610BD0853020010B50446FFF7F2FF7D
:101DE0002046382105F044FE204610BD38B51C4B76
:101DF0000D461968C0F80F1099889B794375044601
:101E0000A0F8131040220221284602F0B1FA402225
:101E100020730221284602F0B0FA402260730321A9
:101E2000284602F0A5FAA073284602F043FA20B92A
:101E3000B0220C490C4804F0CFFF002304F17D02CE
:101E4000C4E9302304F1D10284F8703084F87C3086
:101E500084F8D030C4F81421C4F8183138BD00BF5C
:101E60003C53020078530200E45302002DE9F34191
:101E700004460E461546FFF781FEF28823799A4202
:101E800037D1002D35D17778012F2ED1F378202B43
:101E900027D13289072A24D104F10F0804F116054D
:101EA000294640460FF00CFDD0B1D4F81630C4F8E6
:101EB0000F30207CE17B638BA4F8133001EB002111
:101EC000607CE57C237F009501EB00412568A07CC8
:101ED000637501EB0061237D627D6D6B2046A84731
:101EE0003D46F378212B08BF0125284602B0BDE806
:101EF000F0810025F9E710B50446FFF73FFEFFF734
:101F000009FE217B03F0AAFA04F17D03C4F8C03076
:101F10000023C4F8C43084F87C3004F1740002F06B
:101F200080FA94F87C302BB923682046DB6BBDE83F
:101F30001040184710BD000070B50446FFF71EFEA4
:101F4000D4F818512DB14FF4EE720F490F4804F038
:101F500043FF04F1D103C4F81431FFF7DBFD617BCB
:101F600003F0DAF984F8D050C4F8180104F1C8007D
:101F700002F057FA94F8D0302BB9236820469B6BB7
:101F8000BDE87040184770BD785302004853020006
:101F900010B4D0E9013401686210E40701EB0200DB
:101FA00048BF8A585DF8044B48BFD3581847000013
:101FB000F0B5044687B002ADFFF7E0FD0026FFF75D
:101FC000A9FDA17B009503234022059602F04EFF58
:101FD0002846FEF709F9FFF79DFD164B217B164FAA
:101FE00000954022CDE9033602230597029402F0C2
:101FF0003DFF2846FEF7F8F8FFF78CFD0F4B617B9D
:1020000000954022CDE9033602230597029402F0A1
:102010002DFF2846FEF7E8F8FFF77CFD4023D4F8B3
:102020001421617B03F01AF9012084F8D00007B075
:10203000F0BD00BFF71E010030530200391F010040
:1020400038B502234371002383600C4B044640F8EB
:10205000683B154602F0D8F904F1740002F0D4F997
:1020600004F1C80002F0D0F9C4F81C51FFF752FD8A
:102070002146FFF70BFD204638BD00BF005402008B
:1020800070B504460D46FFF779FD84F87050002DB9
:102090003ED194F87C3033B1FFF73CFD217B02F058
:1020A000B5FF84F87C5004F17D0304F1740600252B
:1020B0003046C4F8C030C4F8C45002F0B2F930461B
:1020C00002F0A8F928B91549154840F2431204F066
:1020D00083FE94F8D03033B1FFF71CFD217B02F072
:1020E00095FF84F8D05004F1D103C4F8143104F101
:1020F000C80500232846C4F8183102F092F9284692
:1021000002F088F920B940F24D1204490548DEE793
:1021100004F16800BDE8704002F083B97853020012
:10212000565302006753020010B50446FFF726FD20
:1021300020460021BDE81040FFF7A2BF38B50D468C
:102140000446FFF71BFD042D05D020460021BDE805
:102150003840FFF795BF38BDF8B5154604460E4622
:102160001F46FFF70BFD04232B70F28823799A4258
:102170001DD1717801291AD1F278212A08D0222A9A
:102180000BD0202A4FF0000013D12870163401E044
:1021900029700F343C600720F8BDB38813F00103A9
:1021A00008BF19462046FFF76BFF02232B70002063
:1021B000F2E703232B70EFE710B58AB00446FFF770
:1021C000CDFC684601F0EAFF0A4B0093694604F132
:1021D0006800099402F03DF92046FFF7C7FC064B62
:1021E00000211A68684602F023F86846FFF7C2FD2E
:1021F0000AB010BD205302004453020070B58EB0E7
:10220000154604460E46FFF7A9FC01A801F0C6FFDB
:102210000E4B0C9501A9002504F174000193CDE942
:102220000A468DF8345002F014F92046FFF79EFC60
:10223000074B29461A6801A801F0FAFF01A89DF88A
:102240003440FFF7ABFD20460EB070BDF0520200E7
:102250004453020010B50446FFF790FC94F87C301C
:102260007BB9D4F8C43063B1FFF754FCD4F8C43060
:10227000217B04F17D0203F08FF810B1012384F873
:102280007C3010BD2DE9F8431E4604468946904631
:102290009DF82070FFF762FC0023336094F87030E3
:1022A000E3B194F87C30CBB9D4F8C450C5F1400503
:1022B000454528BF4546B8F1000F05D02A46494696
:1022C000D4F8C0000FF02EFBD4F8C4302B44C4F86F
:1022D000C430356017B12046FFF7BCFF2046BDE88B
:1022E000F843FFF743BCF0B50446406A90F87050DD
:1022F00085B001262DB984F830503546284605B002
:10230000F0BD04AB002743F8047DD4E90A1200961F
:10231000FFF7B8FF0399E36AA26A5B1A0A44E36213
:10232000A26213B984F83060E8E7606AFFF792FFB1
:102330003D46E3E72DE9F0431C4691B09046064642
:102340008946FFF70BFC002C08BF01AC4FF00005DD
:10235000256002A80CBF0127002701F01FFF104BCA
:10236000029302A906F1C800CDE90D84CDE90B69FD
:102370008DF83C708DF83D5002F06BF83046FFF759
:10238000F5FB084B29461A6802A801F051FF02A884
:102390009DF83D40FFF716FD204611B0BDE8F083E3
:1023A000085302004453020010B5D0F81831044617
:1023B0006BB990F8D03053B9FFF7ACFB402304F170
:1023C000D102617B02F04AFF012384F8D03010BDB6
:1023D00070B51E4604460023336094F870300846FA
:1023E000EBB194F8D030D3B9D4F81851D4F8141113
:1023F000954228BF15462A460FF094FA3560D4F866
:102400001431D4F818212B44551BC4F81431C4F8E6
:10241000185125B92046BDE87040FFF7C5BF70BD13
:1024200037B50446406A90F870502DB984F835509D
:102430000125284603B030BD02AB002243F8042D2D
:10244000D4E90A12FFF7C4FF0199A26A0A44A26202
:10245000226B13680B441360E36A01995B1A94F8CA
:102460003410E36209B9126802B91BB9012384F878
:102470003530DEE7606AFFF797FF0025D9E76FF098
:102480001500704700290CBF6FF01800002070473E
:10249000012070476FF0150070476FF0150070470E
:1024A0001120704770477047704703689B6C18474E
:1024B000A0F59C70F9E77047704770477047704708
:1024C0000368184710B50446012000F009FC94F891
:1024D000700010BDA0F59C70F4E7000038B500F066
:1024E000EDFB094D044695F870301BB1012000F05A
:1024F000F7FBF8E700F0E2FB001BC728F6D9BDE8C0
:102500003840FEF7EBBF00BFB82D00204FF0FF3181
:1025100003F005BA07B502AB012243F8041D1946C2
:10252000FFF76CFE18B1019803B05DF804FB4FF0A3
:10253000FF30F9E7A0F59070FFF7ECBF07B502A9EF
:10254000002301F8013D0122FFF7F4FE20B19DF8C0
:10255000070003B05DF804FB4FF0FF30F9E7A0F58A
:102560009070FFF7EBBF2DE9F04104460D4616468B
:102570001F46DDF81880FFF701FBD4F810433CB18B
:1025800043463A4631462846A446BDE8F0416047F6
:10259000BDE8F08170B50646FFF7F0FA06F5457420
:1025A0000025D6F85433AB4208D92046103454F8ED
:1025B000043C1BB11B6898470135F2E770BD2DE95B
:1025C000F04190F8704006468846174674B10024E2
:1025D000A7420BD93D1B402D28BF402508EB040125
:1025E0002A463046FFF70AFE2C44F1E72046BDE8B4
:1025F000F081A0F59C70E2E790F8703013B10368A9
:102600001B6C184718467047A0F59C70F4E7000053
:10261000B0F5966F10B511D10421094803F0F7F910
:10262000044658B1074B0360074903F090FB22466C
:1026300006490348BDE8104003F0A7BA10BD00BF2B
:1026400010310020DD240100BF240100C12401005D
:1026500010B4D0E9013401686210E40701EB020014
:1026600048BF8A585DF8044B48BFD358184710B488
:10267000D0E9013401686210E40701EB020048BFB1
:102680008A585DF8044B48BFD3581847134B03F1E1
:10269000780270B50360C0F8202103F1D802E83356
:1026A0000446C0F82421C0F8383100F5457600F51D
:1026B0005575AE4204D0103D2846FDF795FDF8E76C
:1026C00004F5157007F076FF04F5907004F026F815
:1026D0002046FFF727FB204670BD00BF785402005C
:1026E000A0F59070FFF7D2BFA0F59270FFF7CEBFB4
:1026F00010B50446FFF7CAFF20464FF4567105F0A7
:10270000B7F9204610BDA0F59270FFF7F1BFA0F514
:102710009070FFF7EDBF00007FB50446FFF71EFA8B
:102720001F4BC4F810332046FFF720FA1D4B0393CC
:102730001D4B01932046002300940293FFF70EFAED
:10274000D4F85453032D13D804EB05166B1C06F56F
:102750004576C4F854333046FDF746FD04EB0515C5
:10276000039BC5F820331BB15B6869463046984728
:102770002046FFF7FBF96846FDF736FD0B4B039348
:102780000B4B00930B4B01936946002304F5157026
:10279000029307F089FE6846FDF726FD04B070BD80
:1027A0001126010064540200B928010058540200A7
:1027B000103100200D250100A0F59C70FFF7ACBF83
:1027C000F7B504461F4615460E4608F0EBF8BDF86F
:1027D00024300193BDF8203000932A463B46014641
:1027E0002046FFF72DFC002104F5907003F06CFFEC
:1027F0004FF47A73C4F84031234B236003F178021D
:102800000025C4F8202103F1D802E833C4F82421BC
:10281000C4F838314FF480722946C4F83C5104F5AD
:10282000A4700FF07DF9194BC4F84852C4F8543223
:102830002946C4F84C52C4F86452C4F8505204F506
:10284000257005F01FFB04F5157704F52A7005F0D7
:10285000B7FA00952B464FF480521821384607F0FE
:1028600017FEC4F82053C4F83053C4F84053C4F8DA
:102870005053C4F85453C4F8105316B12046FFF710
:102880009BFC204603B0F0BD78540200786A020039
:1028900038B50546FFF762F995F8D03053B9D5F849
:1028A0001841FF2C28BFFF24E4B22846FFF75EF949
:1028B000204638BD0024F8E710B50446D4F850325D
:1028C000B3F5807F1DD02046FFF7E2FFC8B1236833
:1028D00020465B6C9847D4F85032B3F5807FEDD03A
:1028E000D4F84832234483F84801D4F848320133FD
:1028F000DBB2C4F84832D4F850320133C4F8503255
:10290000DCE710BD10B50446FFF7D6FFD4F850320F
:102910002BB1D4F84C321C4494F8480110BD4FF050
:10292000FF30FBE7A0F59C70ECE710B50446FFF71D
:10293000C3FFD4F8503283B1D4F84C32234493F817
:102940004801D4F84C320133DBB2C4F84C32D4F82D
:102950005032013BC4F8503210BD4FF0FF30FBE75E
:10296000A0F59C70E1E710B50446FFF7A5FFD4F889
:10297000500210BDA0F59C70F5E7000037B5104C73
:10298000104D00226821204602F0B0FF2A460E4971
:10299000204604F038FE0D4C42F212030122CDE92C
:1029A0000032002211464FF4F8532046FFF708FF8B
:1029B00007492A46204603B0BDE8304004F023BE54
:1029C00010310020000200200B590100B82D00201A
:1029D0008D26010008B50DF0DBFD2DE9F843064614
:1029E0000D46071D00F10709002417F8011B0A22F4
:1029F000284600F077F82E218046284600F03FF860
:102A00004F4540440444F0D10A22F179284600F0B1
:102A100069F82044BDE8F883024B034A1A6000229B
:102A20005A6070476C310020945502002DE9F04146
:102A300006460D4601EB02080C464445A4EB05078B
:102A400007D0336814F8011B1B68304698470028EC
:102A5000F3D13846BDE8F08170B5044608460D460E
:102A60000FF04EFC23680246294620465B68BDE80D
:102A70007040184709B1FFF7EFBF08467047036879
:102A80001B6818470149FFF7E7BF00BF5864020001
:102A900070B58AB00D460AA9002301F8043D012A49
:102AA00098BF0A22B5FBF2F402FB1456F3B2092ECA
:102AB00094BF30333733DBB2254601F8013D002C9B
:102AC000F0D1FFF7D7FF0AB070BD10B42AB9036880
:102AD0005DF8044B1B68C9B21847D2B25DF8044BCD
:102AE000FFF7D6BFFFF7F1BF2DE9F84F0A9E074663
:102AF000002E10461946B8BF022614461D460DF09A
:102B0000F1FA28B14C493846BDE8F84FFFF7A4BFA9
:102B100025F000494FF0FF32484B204649460DF062
:102B2000E1FA48B94FF0FF32444B204649460DF0D8
:102B3000BBFA08B94249E6E74FF06042414B2046F4
:102B400029460DF0C5FA08B13F49DCE74FF0604275
:102B50003E4B204629460DF09DFA0028F4D1002274
:102B60000023204629460DF095FAD0B12D21384694
:102B7000FFF785FF05F1004382461D463449DFF823
:102B8000D8904FF0000B00204FF000085FFA8BF355
:102B9000B3420BF1010B06DA42464B460DF032F917
:102BA000F4E78246EAE702460B46204629460CF047
:102BB00049FE0D4604460DF0ABFA0A220146804656
:102BC0003846FFF765FF82449EB340460CF076FF1F
:102BD00002460B46204629460CF032FE04460D46BE
:102BE00038461C49DFF87090FFF736FF4FF00008B9
:102BF000824416F1FF361CD34B46424620462946F6
:102C00000CF0D6FF0D4604460DF082FA0A2201466A
:102C100083463846FFF73CFF824458460CF04EFF8F
:102C200002460B46204629460CF00AFE04460D4695
:102C3000DFE75046BDE8F88F98550200FFFFEF7FB1
:102C40009C550200FFFFEF41A0550200FFFFEFC1BE
:102C50000000E03F405B02000000244037B50699C9
:102C600000910546FFF740FF04462846FFF70AFF9C
:102C7000204403B030BD000010B500F033F8FEF77B
:102C8000C5FBFEF747FFFEF73BFF4FF4E131064877
:102C9000064CFFF741FDFDF71BFBFDF7ABFA002CDF
:102CA000FBD0AFF30080F8E7B82D00200000000053
:102CB00010B5044601F0F3F8204610BD07B50749EA
:102CC000684601F029F94FF47A720023DDE900012A
:102CD0000DF08EFA03B05DF804FB00BF78310020E0
:102CE00007F06EBB014801F0E4B800BF7831002066
:102CF00010B5054C204601F04CF92046034A044922
:102D0000BDE8104004F07FBC7831002000020020B4
:102D1000B12C010008B590F900305A1C04D12022D2
:102D20000E490F4804F058F8012259B11F2B86BFF5
:102D300003F01F030B494FF0A04102FA03F3C1F85F
:102D4000083508BD1F2B86BF03F01F0305494FF050
:102D5000A04102FA03F3C1F80C35F2E7A4550200D2
:102D600037560200000300502DE9F0411B4D0601CB
:102D7000AB198046DC680F469CB9FEF744FB8045E2
:102D80004FF0010034BF15F906804FF0FF3804F012
:102D900049FE3544002304460370414603F0B7F86A
:102DA000EC60012F10D006D3022F12D0204600F085
:102DB00008FC012103E0204600F003FC002120462E
:102DC000BDE8F04100F00ABC2046BDE8F04100F04B
:102DD000EBBB204600F0F5FB0321F0E704020020E6
:102DE0002DE9F34107468846FEF70DFB874221D2C5
:102DF000124C3E01A319DD68ADB9FEF704FB874212
:102E00004FF0010034BFA7574FF0FF3704F00AFE20
:102E100034440023054603700122CDF80080394672
:102E200003F07FF8E5604146284602B0BDE8F04176
:102E3000FFF770BF02B0BDE8F08100BF04020020C0
:102E4000064B10B504460360806A08B103F0E2FA4D
:102E5000201DFDF7C9F9204610BD00BFA85702008C
:102E600010B50446FFF7ECFF2046802104F000FE79
:102E7000204610BDCB68C3600BB15B681847704734
:102E8000C36810B52BB9054905484FF4FD7203F02E
:102E9000A3FFBDE810401B68184700BF4F56020053
:102EA0006D560200F8B50546064655F8044B8CB938
:102EB0000D4F386818B14FF0FF3106F065FB3468EC
:102EC00024B9284604F07CFF2C463560386808B1E8
:102ED00006F072FBAC4204D0044905488B2203F093
:102EE0007BFF2046F8BD00BF38BA002079560200AB
:102EF0009B560200036801221B69002118470368E2
:102F000000221B691146184780F84C1300207047B7
:102F100080F850120020704790F84C03704790F8EA
:102F20005002704700207047012070476FF01C006E
:102F3000704737B500F5467504462846019104F000
:102F400047FF0199204600F018FF284604F05EFF75
:102F5000002003B030BDA0F1FC00FFF7EABF37B599
:102F600000F5467504462846019104F031FF0199A9
:102F7000204600F04BFF284604F048FF002003B035
:102F800030BDA0F1FC00FFF7EABF10B4D0E9013278
:102F90000168541001EB6200D20748BF0A595DF87E
:102FA000044B48BFD3581847002070470120704792
:102FB0006FF01C00704700000C4B10B503604833E5
:102FC0000446C0F8FC30D0F8540310B103685B68C5
:102FD000984704F54F70FDF707F904F5467004F0C3
:102FE0002FFF204600F07CFE204610BDD456020084
:102FF000A0F1FC00FFF7E0BF10B50446FFF7DCFFCF
:1030000020464FF4567104F033FD204610BDA0F168
:10301000FC00FFF7F1BFD0F8540308B520B100F071
:103020008AFC003818BF012008BD30B5002585B0E6
:103030002A4669460446039500F007FE6846FDF7F8
:10304000D3F884F84E5305B030BD30B585B00025B7
:10305000012269460446039500F0F7FD6846FDF736
:10306000C3F884F84D5305B030BD10B5044603F0E5
:10307000B3FFD4E940239A420ABF94F808410024E0
:1030800084F0010403F0BEFF204610BD38B500F502
:1030900046750446284604F09BFE04F5037420465A
:1030A000FFF7E3FF48B9284604F0B0FE012004F022
:1030B000F5FD284604F08CFEF1E7284604F0A6FE54
:1030C000002038BDA0F1FC00FFF7E0BF38B5054691
:1030D00000F58070FFF7C9FF80F001042846E4B2D4
:1030E000FFF799FF18B144F40054204638BD03F0AF
:1030F00073FF95F8145303F085FF002DF5D144F0CC
:103100001004F2E7A0F1FC00FFF7E0BF70B5044641
:103110000D4603F061FF03F05FFF94F8086103F0D0
:1031200071FF56B1D4F80431FF2B03F101020ABF3D
:103130000023C4F80421C4F80431D4F80021531C3E
:10314000C4F800312978A154B3F5807F04BF00236F
:10315000C4F80031D4E940239A4204BF012384F823
:103160000831BDE8704003F04DBF38B504460D4648
:1031700003F032FF2046FFF778FFB0B9D4F80431EE
:103180005A1CC4F80421E35C2B70D4F80431B3F565
:10319000807F4FF0000308BFC4F8040184F80831B1
:1031A000012403F02FFF204638BD0024F9E700007A
:1031B00010B586B00446684680E80C0006A800E911
:1031C0000C00039110E90700034BE36084E807005B
:1031D000204606B010BD00BFC056020030B587B013
:1031E00000250B4B009304462B460146084A0195E7
:1031F00002A8FFF7DDFF2A4602A9204600F025FDC0
:1032000002A8FCF7F1FF012384F84E3307B030BD6C
:103210000733010038B5044600F086FC114B002549
:1032200003F1080250332260C4F8FC30C4E9805531
:10323000C4E9C35584F8085284F8145304F5467061
:1032400004F0BEFD084BC4F84C3301232046C4F8FB
:10325000485384F85033C4F85453FFF7BFFF204657
:1032600038BD00BFCC5602000100000110B586B089
:103270000B4B0093044600230146094A019302A820
:10328000FFF796FF012202A9204600F0DEFC02A80B
:10329000FCF7AAFF012384F84D3306B010BD00BF30
:1032A0002534010070B504460D4604F54F7603F051
:1032B00093FEAE420AD03046FCF796FFEB68C4F8A6
:1032C00048331BB15B68294630469847D4F84833E9
:1032D00043B147F6FF712046FFF7F8FE10B13046C4
:1032E000FFF7CEFDBDE8704003F08CBEA0F1FC00FE
:1032F000FFF7D8BF08B5D0F848331BB100F54F70C1
:10330000FFF7BEFD08BDF7B500F5807504462846F9
:10331000FFF7ABFE064603F05FFE94F8087203F079
:1033200071FE77B9204600F06EFC50B1204600F0E7
:1033300011FD0DF107018DF807002846FFF7E6FEA5
:10334000E9E794F84E334BB103F046FE94F8087267
:1033500003F058FE17B12046FFF767FE4EB128462E
:10336000FFF783FE28B9204603B0BDE8F040FFF721
:10337000C1BF03B0F0BD2DE9F743064689461546A7
:10338000002A49D000F54677384604F021FD06F5BD
:1033900080784046FFF769FE044698B196F84C33B2
:1033A000384633B904F032FD6FF00A0003B0BDE8CF
:1033B000F08304F02BFD012004F070FC384604F08B
:1033C00007FDE6E709EB040140460191FFF74DFEDA
:1033D00030B9019940460134FFF7C7FEA542F1D14B
:1033E00003F0FAFD96F850337BB196F84E3363B98B
:1033F0003046FFF788FF03F0EFFD96F8085203F020
:1034000001FE15B93046FFF7E9FE03F0FBFD384633
:1034100004F0FCFC2046C9E71046C7E7A0F1FC0019
:10342000FFF7A9BF73B5044603F0D6FD94F8145313
:1034300003F0E8FD04F50376204600F0F5FB58B1F3
:103440000DF107013046FFF790FE28B19DF80710F7
:10345000204600F082FCEFE794F84D333BB104F5D1
:103460000370FFF702FE10B12046FFF7EEFD6DB1CD
:1034700003F0B2FD94F8145303F0C4FD35B92046AF
:10348000FFF7C9FD10B92046FFF734FF02B070BD49
:10349000F8B505460C46164600F503773846FFF7A3
:1034A000E4FD40B1A719BC4209D014F8011B28461D
:1034B00000F053FCF7E72846FFF7B4FFEEE730468D
:1034C000F8BD2DE9F84F05460F461646002A65D08F
:1034D00003F07FFD044630B1324639462846BDE848
:1034E000F84FFFF7D5BF05F54679484604F070FC64
:1034F00005F5037A03F070FD95F8148303F082FD5F
:10350000B8F1000F14D1A7EB0408A64208EB04079A
:1035100024D903F061FD95F814B303F073FDBBF1FA
:10352000000F1BD139465046FFF7F0FD0134ECE7A0
:1035300095F84C3343B3484604F068FC012004F08E
:10354000ADFB484604F044FC03F046FD95F81483B7
:1035500003F058FDB8F1000FEDD1D4E703F03CFDC6
:1035600095F84F3363B195F84D334BB92846FFF7C3
:1035700059FF5046FFF779FD10B92846FFF776FE50
:1035800003F040FDA642B5D8484604F03FFC002CAD
:1035900014BF20466FF00A00BDE8F88F1046FBE725
:1035A000A0F1FC00FFF78DBF07B5019003F014FDFB
:1035B0000198012107F0CCFE03B05DF804EB03F0A5
:1035C00021BD07B5019003F007FD0198002107F028
:1035D000BFFE03B05DF804EB03F014BD07B5CDE901
:1035E000001003F0F9FCDDE9001007F08FFE03B0D6
:1035F0005DF804EB03F006BD416830B4034671B1D9
:10360000D0E9032000F0010402B944B1451001EBF8
:1036100060000CB149598A58996830BC104730BCD9
:103620007047000008B5431C04D10F490F48202201
:1036300003F0D2FB012359B11F2886BF0C4A00F0CA
:103640001F004FF0A04203FA00F0C2F8080508BDC1
:103650001F2886BF064A00F01F004FF0A04203FA61
:1036600000F0C2F80C05F2E764570200375602007A
:1036700000030050036870B504460D461B68984768
:1036800004F13000A567294607F074FF034B1C6066
:10369000236820465B68BDE870401847B8310020B9
:1036A000036870B5094D1B68044698472B68A34210
:1036B00005D0A16F04F1300007F05CFF2C60236897
:1036C00020465B68BDE87040184700BFB831002055
:1036D0007FB51D4603680446CDE902211B68984763
:1036E0002046FFF7DDFF9DF8203083F00103DDE980
:1036F0000221009304F130002B4607F097FF236866
:1037000006465B6820469847A81B18BF012004B0F6
:1037100070BD7FB51D4603680446CDE902211B68D4
:1037200098472046FFF7BCFF9DF8203083F0010347
:10373000DDE90221009304F130002B4607F05AFF27
:10374000236806465B6820469847A81B18BF0120DF
:1037500004B070BD7FB500240126154623462246DD
:1037600002A800968DF8084002F0DBFB03A8009643
:103770002346224629468DF80C4002F0D2FB03A8CE
:1037800007F096FD002853D002A807F091FDB04243
:1037900002D1002004B070BD214603A8FFF71EFF30
:1037A00003A8FFF701FF0A24002103A8FFF716FF73
:1037B00000219DF90C00FFF735FF052004F070FA99
:1037C000032103A8FFF70AFF9DF90C000121FFF771
:1037D00029FF052004F064FA013CE5D102A8FFF7B7
:1037E000E3FE21469DF90800FFF71CFF052004F0C9
:1037F00057FA01219DF90C00FFF714FF052004F092
:103800004FFA01219DF90800FFF70CFF052004F095
:1038100047FA02A8FFF7D5FE03A8FFF7D2FE03A8D8
:1038200007F046FD20B102A807F042FD0028B0D104
:103830006FF00100AEE7000008B50348FFF732FB68
:10384000BDE8084004F0C4BA9031002008B5034830
:10385000FFF728FBBDE8084004F0D8BA90310020FB
:10386000F8B5184B03600D46174B4361002100F17A
:1038700030070446C0E90711C0E909111646016185
:1038800081854822806138460EF04AF90F4BA367C4
:103890002046FFF7D1FF3246294684F87C5084F851
:1038A0007D602046FFF756FF94F97D2094F97C1047
:1038B000384607F019FE064B20461C60FFF7C6FF8E
:1038C0002046F8BDA8570200F9350100A086010086
:1038D000B831002070B504460D4616460021482236
:1038E0000EF01EF932462946204607F0FDFD20461F
:1038F000044907F03FFE2046012107F0B9FE2046AB
:1039000070BD00BFA086010007F034BECAB200231C
:1039100042F00102194607F00FBF07F0BBBE07F0E7
:10392000CBBE10B5144607F0E7FE001B18BF012000
:1039300010BD07F037BE043007F0BABC70474168CD
:1039400030B4034671B1D0E9032000F0010402B99C
:1039500044B1451001EB60000CB149598A5899688F
:1039600030BC104730BC704770B500F14C0690F980
:10397000DF2090F9DE100446304608F051FAD4E911
:1039800039530DB9DA070ED55A1004EB6300DB0783
:1039900048BFA35894F8EC1048BF5D5994F9ED2046
:1039A00094F9EE30A847D4F8D810304608F04EFB12
:1039B000224630460249BDE8704008F01FBC00BFF7
:1039C000693D010070B5044600F14C05D0F8E010E7
:1039D000284602F019FDD4F8F020A2B1D4F8E43062
:1039E0001BB9D4F8E830D8070DD5D4F8F810D4F8BE
:1039F000F4304E1004EB6100C90744BFA159CB5805
:103A000094F8EC109847D4F8D810284608F01EFB1C
:103A1000224628460249BDE8704008F0EFBB00BFCF
:103A2000693D01002DE9F0411F46D0F8E030044621
:103A30000D4616462BB11749174840F2271203F0DE
:103A4000CBF9164AC0E9392303681B68984784F804
:103A5000EC5084F8ED6084F8EE70032D0BD8DFE8AD
:103A600005F0150210154FF0FF333246012104F125
:103A70004C0008F09DFB236820465B68BDE8F041E0
:103A8000184733464FF0FF320221F0E73B463246FB
:103A90002946ECE7B8570200E0570200253A01003A
:103AA0002DE9F04198461D4B03601D4B43600025F6
:103AB0001C4B85600446C0E90555C0E907550F4613
:103AC0001646C360858445634564A0F848506C225F
:103AD000294600614C300EF023F840F20113A4F89F
:103AE000DC304FF47F43A4F8EC30FF232046C4E9D8
:103AF0003558C4E93855C4E93C55C4F8C45084F875
:103B0000DE7084F8DF60C4F8E85084F8EE30C4F862
:103B1000F850FFF729FF2046BDE8F0810058020069
:103B2000693901003F390100F8B51E4B03601E4B97
:103B3000436000251D4B856004460E46C0E90555CF
:103B4000C0E907551746C360858445634564A0F8FE
:103B500048506C22294600614C300DF0E1FFC4E969
:103B60003557C4F8C45040F20113A4F8DC3033795F
:103B700084F8DE30337B84F8DF304FF47F43A4F8E1
:103B8000EC30FF232046C4E93865C4E93C55C4F84D
:103B9000E85084F8EE30C4F8F850FFF713FF2046E1
:103BA000F8BD00BF00580200C53901003F390100CF
:103BB00070B50646044656F84C3B0D461B689847C0
:103BC0003046294608F042FA2368C4F8D850204607
:103BD0005B68BDE8704018477FB50546044655F858
:103BE0004C6B0193CDE902213668B047DDE9013223
:103BF0002846039908F0A4FA23685B68204604B0BD
:103C0000BDE87040184738B50546044655F84C3BAA
:103C10001B689847284608F0A5FB236805465B68A3
:103C200020469847284638BD38B50546044655F81D
:103C30004C3B1B689847284608F0B4FB23680546B0
:103C40005B6820469847284638BD03682DE9F34154
:103C500005461B6816460F46984795F8DC30340138
:103C600003B1B6B195F8DD300BB1012E11D0B834E7
:103C70002819B84206D00190FCF7B6FA01983946E7
:103C8000FFF7F8F82B685B68284602B0BDE8F04102
:103C90001847B83403F0A0F92C44FA68E36805F13A
:103CA0004C089AB10BB903F033FCA74206D020466A
:103CB000FCF79AFA39462046FFF7DCF80122314634
:103CC000404608F0ABFA03F09DF9DBE70BB103F0D7
:103CD00035FC2046FCF788FA0022E260EFE700009E
:103CE00030B5164B036085B000252A466946044668
:103CF0000395FFF7AAFF6846FCF776FA01226946AA
:103D000020460395FFF7A1FF6846FCF76DFA04F122
:103D1000C800FCF769FA04F1B800FCF765FA04F191
:103D20003800FCF761FA04F12800FCF75DFA206A1C
:103D300008B102F06FFB204605B030BD005802000C
:103D400010B50446FFF7CCFF2046FC2103F090FE9F
:103D5000204610BD4C3008F08DBA10B54C300C46E2
:103D600008F0CAFA204610BD00EB0110B83008B5C3
:103D7000C3680BB1FFF784F808BD036870B504464B
:103D80001B680D46984794F8DC30AB422BD065B1E8
:103D900094F8DD304BB9A2686368511004EB6200FF
:103DA000D20744BF6258D358984703F015F905B3BA
:103DB000D4F8C4305BB104F1B800FFF761F803F048
:103DC000A7FB0122002104F14C0008F027FA03F0C0
:103DD00019F984F8DC5035B994F8DD301BB904F1D9
:103DE0004C0008F0FDF8236820465B68BDE8704091
:103DF00018472A46294604F14C0008F00FFAD4F877
:103E0000C430002BE3D003F099FBE0E7036870B502
:103E100004461B680D46984794F8DD30AB422BD022
:103E200065B194F8DC304BB9A2686368511004EBBB
:103E30006200D20744BF6258D358984703F0CCF8C9
:103E400005B3D4F8D4305BB104F1C800FFF718F81B
:103E500003F05EFB0122114604F14C0008F0DEF98C
:103E600003F0D0F884F8DD5035B994F8DC301BB994
:103E700004F14C0008F0B4F8236820465B68BDE804
:103E8000704018472A46012104F14C0008F0C6F999
:103E9000D4F8D430002BE3D003F050FBE0E7437DAF
:103EA00010B504461BB1037D0BB103F047FB204660
:103EB00010BD13B5044601A802F0B4FA637D53B9EE
:103EC000237D0BB103F024FB206902F064FAC4E9FE
:103ED00000010123637501A802F0ACFA02B010BD25
:103EE00037B504460D4601A802F09CFA00230022D3
:103EF000C4E900236B7D4BB1286902F04CFAD5E987
:103F00000032C01A61EB0201C4E9000101A802F00D
:103F100091FA204603B030BD30B585B004460D4659
:103F200003A802F07FFA29466846FFF7D9FFD5E9D2
:103F30000210009B019A5B1842EB0002C4E90032B8
:103F400003A802F077FA204605B030BD13B5044649
:103F500001A802F067FA206902F01DFA002200238E
:103F6000C4E90001C4E9022301A802F063FA02B027
:103F700010BDD0B5002300260027C0E90067C0E9C6
:103F800002670446016102754375FFF7DFFF2046B3
:103F9000D0BD10B5044601F0E1FF002201462046E5
:103FA000FFF7E7FF204610BD03681B6818470000B5
:103FB00010B50446074B236000220023C4E9022306
:103FC00000230846A161C4E90433034902F05CF907
:103FD000204610BD18580200A93F010007B5009007
:103FE00000F10801806902F08EF903B05DF804FB6E
:103FF00000F10801806902F0B3B9002070476FF04A
:104000001C0070476FF01C0070476FF01500704780
:104010006FF01500704701207047012070470020A5
:1040200070470020704770B511F0010405468EB24C
:1040300004D0FFF7E8FD041E18BF0124F30605D5E0
:104040002846FFF7F1FD08B144F01004204670BD8A
:10405000A0F1FC00FFF7E7BF10B5034B0360044677
:10406000FFF73EFE204610BD24580200A0F1FC00E0
:10407000F2E700BF10B50446FFF7EEFF20464FF40D
:10408000807103F0F5FC204610BDA0F1FC00F1E7C3
:104090002DE9F04106460D461746C2B102F099FFE0
:1040A00080F0010313F0FF0403D0336830461B682F
:1040B000984705EB070815F8011B3046FFF74DFE42
:1040C000A845F8D11CB1336830465B68984738463C
:1040D000BDE8F081A0F1FC00FFF7DABF38B5044677
:1040E0000D4662B103681B6898472046FFF732FE11
:1040F0002870236820465B689847012038BD104629
:10410000FCE7A0F1FC00FFF7E9BF000010B5044692
:10411000FFF7C6FC044B03F108023C332260C4F8ED
:10412000FC30204610BD00BF1C58020030B50568A9
:1041300085B00446CDE9022101932D68A847DDE949
:10414000013220460399FFF76DFC23685B68204627
:1041500005B0BDE83040184730B5044685B004F1DD
:10416000080502F039FF29466846FEF783FE284617
:10417000FCF73AF8E0690023C4E9053308B103F01D
:10418000A7FE02F03FFF039B13B11B6868469847E8
:104190006846FCF729F805B030BD0000002204494C
:1041A0004260C0E905220160C2610284704700BF1D
:1041B000F0580200074B10B503608369044623B131
:1041C00005490648262202F007FE0830FCF70CF8E5
:1041D000204610BDF0580200A0580200C958020045
:1041E00070B504460E4602F0F7FEA56965B104F10C
:1041F0000800FBF7F9FF00230122636184F8202007
:10420000E36184F82160A36102F0FCFE2DB1214638
:104210002846BDE8704000F02EB970BD08B103F02B
:10422000D7BD02F0D9BE08B103F0F0BD02F0EABE7E
:104230002DE9F041044686B00E46174602F0CCFE4A
:10424000A56902F0DFFE35B301AD0021284603F079
:1042500019FE02F0C1FED4E9068323B10F491048CC
:10426000392202F0B9FDE56102F0CCFEB8F1000F91
:104270000ED03946284603F00DFE48B93046FFF708
:10428000CDFF20460121FFF7ABFF3046FFF7CBFF04
:10429000284603F020FE06B0BDE8F081A0580200D9
:1042A000D75802000022C0E90122012201600273F6
:1042B000704770470346007B30B1D3E90020136894
:1042C00098428CBF0020012070472DE9F04104681E
:1042D000012606FA01F10023271D82EA060E17F8CF
:1042E00013400C4204D004F030043AB1102C07D132
:1042F0000233202BF3D14FF0FF300DE0002CF7D02C
:10430000D0F808C042EA030506FA05F818EA0C0FCF
:10431000EED1202C02D02846BDE8F0814EEA0304FD
:1043200006FA04F414EA0C0FF5D0E1E770B50D4677
:1043300011462A4604461E46FFF7C7FF002802DA48
:104340000020207370BD25686368420805EB820574
:10435000E98819446B7906FB03136360012303FAB0
:1043600000F1A36842EAC0100B43A360C0B2E9E7C2
:1043700013460A460121FFF7D9BF13460A4600211A
:10438000FFF7D4BF13B50A46019100210446FFF799
:10439000EFFF019A0021204602B0BDE81040FFF770
:1043A000ECBF0022C0E900227047704700687047E8
:1043B00000230B60436813B90160416070471960C6
:1043C000FBE703682BB11A6802B942600260002261
:1043D0001A601846704710B50468002223468B42C5
:1043E00003D083B11A461B68F9E70AB10B68136062
:1043F0008C4204BF0B68036043688B424FF000039C
:1044000008BF42600B6010BD10B50446FFF7C9FF3E
:10441000204610BD08B5FFF7C9FFB0FA80F040098B
:1044200008BD70B505462846FFF7C0FF044678B1C1
:1044300050F8043C061F9B683046984740B1284618
:10444000FFF7BFFF54F8043C3046DB689847EAE7C3
:1044500070BD70B504460D46FFF7A8FFAC61064677
:10446000291D2046FFF7A4FF26B92046BDE870406D
:10447000FFF7D7BF70BD70B505460C46FFF796FF36
:10448000064604B1043421462846FFF7A4FFA6429D
:1044900004D12846BDE87040FFF7C3BF70BD10B51A
:1044A00004462046FFF782FF28B150F8043C043848
:1044B000DB689847F5E710BD10B50446FFF7EFFF3E
:1044C0002046FFF772FF204610BD70477047036813
:1044D0009B6D184770B586B00023CDF806308DF877
:1044E0000A3003898188C2888DF810301B0A122493
:1044F0008DF811300323022590F820638DF80440D5
:104500008DF80C100124090A8DF80E208DF8143056
:10451000120A00F10A038DF805408DF807508DF856
:104520000B608DF812408DF813508DF815408DF802
:104530000D108DF80F2001AC05AE1D46224603CAB2
:10454000B24218605960144603F10803F6D112888C
:104550001A80284606B070BD00487047D85B02003C
:1045600000487047105C020000487047DC5B0200A6
:1045700000487047225C020000487047085C020057
:1045800000487047F25B0200036810B504465B6F99
:104590009847D4F8EC0203681B6F984723682046BD
:1045A0009B6FBDE81040184738B5D0F83433012B65
:1045B000044610D10025D4E9C93000F0010203B946
:1045C0004AB14110C4E9C95504EB60000AB1625810
:1045D000D3589847EFE7D4F834332BB90649074846
:1045E00040F2C66202F0F8FB013BC4F83433BDE888
:1045F000384002F007BD00BF005902002B590200ED
:1046000008B5D0F834332BB90349044840F2CD62E1
:1046100002F0E2FB08BD00BF005902002B59020066
:1046200010B5044602F0D8FCD4F834330133C4F892
:1046300034332BB9034904484FF4D76202F0CCFB62
:1046400010BD00BF005902002B590200036873B56A
:104650000446DB6F9847B4F8F8120B0A022B25D0FA
:10466000032B56D0012B04D1236820461B6B98479F
:1046700008B9002018E0236820461B6B984706788D
:10468000122EF6D1236820461B6B98474578012DE2
:10469000EFD12368C4F804631B6B2046984784F865
:1046A0000853C4F80003284602B070BD2368C9B29D
:1046B0005B6B0191204698470028DAD02368019966
:1046C0005B6B2046984703780199092BD1D1236869
:1046D00020465B6B984743780199022BC9D1236828
:1046E00020465B6B9847236885785B6B0199204671
:1046F0009847C378019945EA03252368C4F8045311
:104700005B6B20469847C4F80003012084F8080337
:10471000CAE7C9B20529ACD8DFE801F0030F1923B5
:104720002D37236820469B6B98470378C4F80433E1
:1047300023689B6B20469847E5E723682046DB6BA0
:1047400098470378C4F804332368DB6BF2E72368E7
:1047500020461B6C98470378C4F8043323681B6C0D
:10476000E8E7236820465B6C98470378C4F8043375
:1047700023685B6CDEE7236820469B6C98470378D0
:10478000C4F8043323689B6CD4E723682046DB6CB1
:1047900098470378C4F804332368DB6CCAE70B78C6
:1047A000DB0913700B78C3F3411353700B7803F0DC
:1047B0001F0393704B78D3704B8893808B88D38082
:1047C000CB88138170470000036870B504465B6FA7
:1047D0000D46984794F80C33022B05D009490A4836
:1047E00040F23D1202F0F8FA084BC4F824330023DB
:1047F000C4F82833236884F8105320469B6FBDE823
:10480000704018470059020037590200FD4C010062
:1048100038B503680446DB6F984794F8083313B142
:104820000025284638BDD4F8EC0203685B6C984735
:10483000D4F804239042F3D8D4F80013121A014498
:10484000C4F80013C4F80423A2B994F80A5302234D
:1048500084F80C3345B1236884F80A239B6E04F571
:104860003D7120469847DCE701212046FFF7ACFF69
:104870000125D6E7D4F8EC02D4F820430368A2421D
:104880001B6C28BF22469847F2E70000036813B567
:104890000446DB6F984794F81C33012B06D800239D
:1048A0000F4900931A460F4802F0FEFC94F80C33AF
:1048B00023B100230C4900931A46F4E794F80B3314
:1048C000032B0BD02046FFF7A3FF38B9D4F8EC0236
:1048D0000368DB6C02B0BDE81040184702B010BDA1
:1048E000625902000E0115808A59020038B503682A
:1048F0000446DB6F984794F80833012B3BD1D4F87A
:10490000045335B994F809330BB901252CE084F828
:104910000953D4F82023D4F8EC02D4F80013036828
:10492000954228BF15462A469B6C9847D4F8003319
:10493000D4F804232B44551BC4F80033C4F80453A3
:10494000002DE2D194F80923002ADED194F80A530D
:10495000022384F80C334DB1236884F80A239B6E3C
:1049600004F53D7120469847284638BD0121204670
:10497000FFF72AFFC9E70025F6E70000036813B533
:104980000446DB6F984794F81C33012B06D80023AC
:104990000B490C4800931A4602F086FC94F80B333E
:1049A000032B0BD02046FFF7A1FF38B9D4F8EC0257
:1049B0000368DB6C02B0BDE81040184702B010BDC0
:1049C000625902000E011580036870B504465B6FE2
:1049D0000D46984794F80C33032B05D009490A4833
:1049E0004FF4C37202F0F8F9084BC4F824330023E3
:1049F000C4F82833236884F8105320469B6FBDE821
:104A00007040184700590200D4590200BB570100FA
:104A100010B503680446DB6F9847012004F21D338C
:104A2000C4F80033C4F8040384F8080310BD036815
:104A300010B50446DB6F984794F81C33042B01BF74
:104A4000B4F82E33A4F8FA32012004F54C7303BFF6
:104A5000C4F80033C4F8040384F80803002010BD30
:104A6000036810B5DB6F04469847042384F80C33C1
:104A7000236894F8F8221B6FB4F8FA12204698477E
:104A8000012010BD036870B504465B6F0D46984762
:104A900094F80C33042B05D009490A484FF4EB7203
:104AA00002F09AF9084BC4F824330023C4F82833E1
:104AB000236884F8105320469B6FBDE87040184768
:104AC00000590200005A02008D4D0100036810B524
:104AD0000446DB6F984794F81C33042B02D0B4F8DB
:104AE000FA328BBB94F8F632012B0FD0022B10D088
:104AF00053BB164B01221A80144BC4F8003301201B
:104B00000223C4F8043384F8080310BD0F4B0022BD
:104B1000F1E7B4F8FA2222F08F03ABB912F00F0FCD
:104B20000A4902D100230B80E6E7530003F01E037D
:104B300043EAD213023B182202FB034393F83030BE
:104B40009B07EFD50123EEE70020DEE7BC31002014
:104B500010B50368044690B0DB6F9847D4F8EC02B8
:104B6000D4F8202303686946DB6B984704F53D724F
:104B700069462046FFF713FE0023C4F80833C4E952
:104B8000C033012384F80C33236811465B6E9847C9
:104B900010B010BD036813B50446DB6F984794F856
:104BA0001C33012B06D800230A490B4800931A46F0
:104BB00002F07AFB94F80C23012384F82C332AB9F1
:104BC000204602B0BDE81040FFF7C2BF84F82D3385
:104BD00002B010BD625902000E0115802DE9F041AE
:104BE0001D46036804465B6F0F461646984794F8C7
:104BF0000C33012B05D00B490B4840F2BA2202F0CE
:104C0000EBF80A4BC4F824330023C4F82833236894
:104C100084F81073C4E9C56520469B6FBDE8F04178
:104C2000184700BF00590200285A02002F56010001
:104C3000036870B50446DB6F9847B4F8FC2292B362
:104C400094F8F41294F80833012925D1012B06D0E9
:104C5000D4F8EC020368DB6CBDE870401847D4F868
:104C60000433934201D9C4F804230129D4F804334E
:104C700026D19A4208D9D4F82023B3FBF2F002FBE4
:104C800010330BB984F80913022384F80B33204640
:104C9000BDE87040FFF72ABE002BD9D1D4F8043309
:104CA0009342E2D0D4E7D4F8EC02D4F804230368AA
:104CB000002AD0D1032184F80B139B6C11460EE01F
:104CC000D4F8EC020122016884F80B23D4F82023E5
:104CD0000D6CD4F800139A4228BF1A462B46BDE843
:104CE0007040184710B503680446DB6F98470023EF
:104CF00084F82D33032384F80B3310BD036810B5FB
:104D0000DB6F04469847002284F80C2394F82D2387
:104D100094F8103322B12046BDE81040FFF7E2BFFF
:104D200033B9D4F8EC020368BDE81040DB6C1847D7
:104D300094F80B33012B0AD1D4F8EC02032384F846
:104D40000B3303689B6CBDE8104011461847022BDB
:104D500007D1D4F8EC02032384F80B3303681B6CEF
:104D6000F1E710BD036810B5DB6F044698470023D8
:104D700084F82C3394F80C3323B92046BDE8104056
:104D8000FFF7B0BF012384F82D3310BD036810B5C1
:104D9000DB6F04469847002284F80C2394F82D23F7
:104DA00094F8103322B12046BDE81040FFF79ABFB7
:104DB00063B1B4F8FA32A4F82E33B4F8F83284F8B8
:104DC00030332046BDE81040FFF732BFD4F8EC0284
:104DD0000368BDE81040DB6C1847036810B5044653
:104DE0005B6F984794F8F03283B9D4F8EC0203680B
:104DF00021469B689847D4F8EC02036840219B6BDE
:104E000098470123C4F8200384F8F0322368204631
:104E10009B6FBDE81040184738B5036804465B6FC8
:104E2000984794F81C53236820469B6FEDB298472F
:104E30002B1F5842584138BD036810B55B6F0446BC
:104E400098472046FFF7C9FF94F8F1323BB9D4F8F0
:104E5000EC0203685B699847012384F8F132236808
:104E600020469B6FBDE81040184700002DE9F04F29
:104E7000904685B002680391526F0293DDF8389036
:104E800005469047039911F0700F03D111F00F0FF1
:104E9000029B06D100232B492B4800931A4602F0AF
:104EA00003FA95F8F2723FB92B6828469B6F984732
:104EB000384605B0BDE8F08F4C0004F01E0444EA0B
:104EC000D114A61E4FF0180B0BFB065A9AF830208F
:104ED000D20705D51D491E484FF48E6201F07CFFB4
:104EE000B8F5806F04D919491A4840F27142F5E7C4
:104EF000D5F8EC020268176D4246B847074600280D
:104F0000D2D0601E0BFB0050043048450BD00290FD
:104F1000FBF76AF9D9F80C30CAF828301BB15B6886
:104F2000029849469847182303FB065696F83030F6
:104F3000A6F82C8043F0010386F83030002386F871
:104F40003130B1E74B5A02000401158000590200CC
:104F50006A5A02008C5A0200D0F8EC0203685B6BBC
:104F600018470000F8B50F461949044640F81C1BC5
:104F70000025064604F53B71F5601836B142FBD1B9
:104F8000E380BDF818302381A28000214FF43472F1
:104F90000CF0C6FD2822002104F53D700CF0C0FD88
:104FA0000123C4E9C855C4E9CA55C4F8EC72A4F891
:104FB000F05284F8F252C4F8345384F8305384F831
:104FC0001C3384F81D5384F81E532046F8BD00BFDF
:104FD000585B020038B503685B6F0D46044698477E
:104FE0002B071FBF6A0002F01E0242EAD513023BE4
:104FF0001BBF182202FB0343D4F820539D8D236866
:1050000020469B6F9847284638BD00000368F7B5D7
:105010005B6F0E460546984736F08F0701D1320781
:1050200006D100231749184800931A4602F03CF9AC
:10503000740004F01E0444EAD6141823023C03FB57
:10504000045494F83030DB0709D42846FFF7E4FE17
:1050500080B10E490E4840F28C5201F0BDFE94F82A
:1050600031303BB1D5F8EC0203683146DB6E98472E
:1050700084F831702B689B6F284603B0BDE8F04080
:10508000184700BF4B5A0200040115800059020066
:10509000A45A0200036873B55B6F0E460446984736
:1050A00016F0700F01D1310706D100231A491B48B1
:1050B00000931A4602F0F8F8750005F01E0545EA5F
:1050C000D6151823023D03FB054595F83030DA0765
:1050D00009D42046FFF7A0FEB0B11149114840F2B3
:1050E000CC4201F079FE43F0020385F83030D4F869
:1050F000EC02036831469B6D984795F831301BB13F
:1051000031462046FFF782FF23689B6F204602B09E
:10511000BDE87040184700BF4B5A020004011580DB
:1051200000590200A45A0200036810B50446DB6F60
:10513000984794F81C33042B02D0B4F8FA32A3B980
:1051400094F8F632022B10D1B4F8FA1231F08F0035
:105150000BD111F00F030AD0B4F8F83223B920466E
:10516000C9B2FFF797FF012010BD0020FCE71846E9
:10517000FAE70000036873B55B6F0E460446984774
:1051800016F0700F01D1310706D100231C491D48CC
:1051900000931A4602F088F8750005F01E0545EAEE
:1051A000D615023D182303FB054393F83020D207A0
:1051B00009D42046FFF730FED8B11349134840F216
:1051C000F14201F009FE93F831301BB1314620461F
:1051D000FFF71CFF182303FB0545314695F83030D7
:1051E00023F0020385F83030D4F8EC020368DB6D5D
:1051F000984723689B6F204602B0BDE8704018476F
:105200004B5A02000401158000590200A45A020002
:10521000036810B50446DB6F984794F81C33042BE1
:1052200002D0B4F8FA32A3B994F8F632022B10D1B6
:10523000B4F8FA1231F08F000BD111F00F030AD03D
:10524000B4F8F83223B92046C9B2FFF793FF012022
:1052500010BD0020FCE71846FAE700002DE9FF41E9
:105260009846036803920E465B6F0746984736F0F0
:105270008F0403D116F00F0F039A06D100232049A3
:10528000204800931A4602F00FF8750005F01E053D
:1052900045EAD6151823023D03FB057595F8303015
:1052A000DB070AD43846FFF7B7FD044688B1164934
:1052B000164840F2AF5201F08FFDAB8D434505D942
:1052C00013491448009423462246DCE795F8311030
:1052D00039B13B6838469B6F9847204604B0BDE81B
:1052E000F081D7F8EC0201680C6E3146A047044605
:1052F0000028EED095F83130013385F83130E8E7F9
:105300004B5A02000401158000590200A45A020001
:10531000B25A020005011580036837B55B6F0D4670
:105320000446984715F0700F01D12A0706D10023D3
:105330001549164800931A4601F0B6FF6B0003F0BA
:105340001E0343EAD513023B182202FB034393F8E2
:105350003030DB070AD42046FFF75EFD054660B11A
:105360000B490C4840F2E95201F036FDD4F8EC024A
:10537000036829465B6E98470546236820469B6F65
:105380009847284603B030BD4B5A020004011580EF
:1053900000590200A45A02002DE9FF419846036813
:1053A00003920E465B6F0746984736F08F0503D190
:1053B00016F00F0F039A06D10023224922480093CA
:1053C0001A4601F071FF740004F01E0444EAD6147A
:1053D0001823023C03FB047494F83030DB070AD432
:1053E0003846FFF719FD054688B11849184840F2BC
:1053F0000A6201F0F1FCA38D434505D21549164818
:1054000000952B462A46DCE794F831303BB13B68E7
:1054100038469B6F9847284604B0BDE8F081D7F81E
:10542000EC02036831469D6E4346A847054638B1F5
:1054300094F83130A4F82E80013384F83130E6E757
:10544000E085E4E7035B02000401158000590200D7
:10545000A45A0200215B020005011580036837B5DC
:105460005B6F0D460446984715F0700F01D1290770
:1054700006D100231249134800931A4601F014FF85
:105480006A0002F01E0242EAD513023B182202FB18
:10549000034393F83020D2070AD42046FFF7BCFC20
:1054A000054630B10849094840F2496201F094FCD0
:1054B000DD8D236820469B6F9847284603B030BD9A
:1054C0004B5A02000401158000590200A45A020040
:1054D000036870B50446DB6F0D46984794F81C23AB
:1054E00084F81C53AA42D3B226D0032B09D9032D2A
:1054F0008CBF00260126012B05D9012D03D88EB1C2
:1055000003E00026F7E786B100264FF4347200214D
:1055100004F11C000CF004FB002384F81D3384F814
:10552000F23216B12046FFF71DFC236829462046BB
:105530001B6EBDE87040184770BD036810B5044687
:10554000DB6F9847D4F8EC0294F8F8120368DB6A32
:105550009847B4F8F8322BB902212046FFF7B8FF7C
:10556000012010BD0321F8E7036810B50446DB6F86
:10557000984794F8F81284F81D1351B9D4F8EC0246
:1055800003681B6A984703212046FFF7A1FF01200B
:1055900010BD012384F8F232032384F80C3323680E
:1055A0002046DB6E9847F2E7036810B50446DB6FD0
:1055B000984794F8F532C3BB94F8F7320B2B34D8E4
:1055C000DFE803F0060B331033151A331F24292E9E
:1055D0002046BDE81040FFF779BA2046BDE81040EC
:1055E000FFF716BE2046BDE81040FFF79DBD2046E0
:1055F000BDE81040FFF7A1BF2046BDE81040FFF70F
:1056000025B82046BDE81040FFF702BA2046BDE8A5
:105610001040FFF7A9BF2046BDE81040FFF707BACA
:105620002046BDE81040FFF71BBA002010BD0368FC
:1056300010B5DB6F04469847002084F80C0394F8FB
:105640002D0394F81033D4E9C52190B1012B0BD868
:10565000022384F80C33236804F53D7120469B6EC9
:10566000BDE81040012218472046BDE81040FFF772
:1056700039BB042B12D12046FFF796FF30B9D4F87E
:10568000EC020368BDE81040DB6C184794F80C335B
:1056900073B92046BDE81040FFF7CABA032BEED01D
:1056A0000120C4E9C02184F80A0384F80833F0E734
:1056B00010BD036810B5DB6F0446984720460221F1
:1056C000FFF706FF002384F81E332046FFF74AFB4E
:1056D00023682046DB6DBDE810401847036810B50D
:1056E00004465B6F984794F8F1323BB1D4F8EC0272
:1056F00003689B699847002384F8F13294F81C33BF
:10570000012B03D901212046FFF7E2FE002384F894
:105710001D3384F81E33236820469B6FBDE810407C
:105720001847036810B504465B6F984794F8F03249
:1057300053B12046FFF7D2FFD4F8EC020368DB68D0
:105740009847002384F8F032236820469B6FBDE819
:10575000104018470D4B70B5036090F8F0320446C6
:105760002BB10B490B4840F2625201F035FBFFF7B9
:10577000D8FF04F53B7504F11C06B54204D0183D72
:105780002846FAF731FDF8E7204670BD585B020065
:1057900000590200425B020038B503680D46DB6F1A
:1057A0000446984745B994F81C332BB12946204646
:1057B000BDE83840FFF78CBE38BD036870B50446BD
:1057C000DB6F984794F82D3394F8106303B97EB9D2
:1057D0002046FFF721FB054650B901464FF43472CD
:1057E00004F11C000CF09CF984F81D5384F8F2526B
:1057F000002384F80C3394F82D3323B12046BDE800
:105800007040FFF76FBAD4F8EC02036856B1DB6959
:10581000984720460421FFF75BFE2046BDE8704014
:10582000FFF706BABDE87040DB6C1847036837B570
:10583000DB6F0D460446984715F0700F01D12B071A
:1058400006D100230F49104800931A4601F02CFDA1
:105850006B0003F01E0343EAD5118B1E182505FBD0
:10586000034393F8312052B1481E05FB0040013A32
:10587000043083F83120C3680BB1FDF701FB03B09E
:1058800030BD00BF4B5A020004011580036837B5D4
:10589000DB6F0D460446984715F0700F01D12B07BA
:1058A00006D100230F49104800931A4601F0FCFC72
:1058B0006B0003F01E0343EAD5118B1E182505FB70
:1058C000034393F8312052B1481E05FB0040013AD2
:1058D000043083F83120C3680BB1FDF7D1FA03B06F
:1058E00030BD00BF4B5A02000401158038B50023BB
:1058F0000446836519B90A4600F013F803E0002A4C
:10590000FAD100F046F8204638BD10B5044600F044
:1059100053F804F14C00FAF767FC204610BD00F084
:1059200055B9032938B5044607D9D31C23F003031E
:105930009A1A891A21F003011A460023C4E9043394
:10594000E2600D4605BBC4E906512262256000F005
:1059500001FA00F001FAC4E90A556060258184F873
:10596000245004F1300000F017FA00280BDB04F19A
:10597000440000F009FA002805DB04F1480000F0BB
:1059800003FA00EAE07038BD2369013323616D0832
:10599000D8E737B50546084601910BF073FC04467D
:1059A00038B1024601992846FFF7BBFF6C6103B08E
:1059B00030BD4FF0FF30FAE770B505680446B5B961
:1059C000A36A1BB1E06A4FF0FF31984704F1480029
:1059D00000F0DCF904F1440000F0D8F904F13000E3
:1059E00000F0E2F96069BDE870400BF053BCEE686E
:1059F00036B9EB6913B105F124009847AD68DEE7CD
:105A0000F36913B106F124009847F668F0E773B51F
:105A1000064627314830019021F0030500F0B7F920
:105A2000B469019806F118035CB9F3699D4223D863
:105A3000346A5B1BF36162190123326225602371B2
:105A400007E02268954213D8E26872B11A60A36831
:105A5000936000F09EF900234FF0FF32C4E9053255
:105A6000E3612434204602B070BDA2681A60F0E7FA
:105A700004F10803A468D7E700F08BF9F2E751F8C6
:105A8000083C73B505460C460BB108469847EB68D1
:105A900033B1A4F12406B34202D82B6AB34204D234
:105AA000002304F8203C02B070BD05F148000190CD
:105AB00000F06DF9AB69019805F11802A3B11D68FA
:105AC00054F8241C8D420BD30ED144F8183C9B682B
:105AD00044F81C3C166002B0BDE8704000F059B9B3
